:100000000C9463000C948B000C948B000C9493065E
:100010000C9493060C9493060C948B000C948B0018
:100020000C948B000C948B000C948B000C948B0024
:100030000C948B000C948B000C948B000C948B0014
:100040000C94F1050C948B000C9461060C943B0607
:100050000C948B000C948B000C948B000C948B00F4
:100060000C948B000C948B000000000024002700EF
:100070002A0000000008000201000003040700003D
:1000800000000000000000000000230026002900FE
:1000900000000000250028002B00040404040404D0
:1000A0000404020202020202030303030303010227
:1000B00004081020408001020408102001020408F6
:1000C00010200B073A0A11241FBECFEFD8E0DEBF85
:1000D000CDBF23E0A2E6B2E001C01D92A939B2076C
:1000E000E1F712E0A0E0B1E0E0E8F9E102C005903C
:1000F0000D92A236B107D9F710E0C2E6D0E004C0F5
:100100002197FE010E94BB0AC136D107C9F70E94A0
:10011000FE070C94B30C0C940000833081F028F49B
:10012000813099F08230A9F008958730A9F08830A5
:10013000C9F08430B1F4809180008F7D03C080913C
:1001400080008F7780938000089584B58F7784BD79
:10015000089584B58F7DFBCF8091B0008F77809319
:10016000B00008958091B0008F7DF9CF1F93CF9399
:10017000DF93282F30E0F901EE58FF4F8491F90109
:10018000E255FF4FD491F901E656FF4FC491CC23BD
:10019000A9F0162F81110E948D00EC2FF0E0EE0FD8
:1001A000FF1FE057FF4FA591B4918FB7F894EC91E2
:1001B000111108C0D095DE23DC938FBFDF91CF9162
:1001C0001F910895DE2BF8CFCF93DF9390E0FC01D1
:1001D000E255FF4F249186569F4FFC01849188235E
:1001E000D1F090E0880F991FFC01E859FF4FA591CD
:1001F000B491FC01E057FF4FC591D49161110EC03D
:100200009FB7F8948C91E22FE0958E238C932881F0
:10021000E223E8839FBFDF91CF9108958FB7F894D1
:10022000EC91E22BEC938FBFF6CF3FB7F89480911F
:10023000AB029091AC02A091AD02B091AE0226B596
:10024000A89B05C02F3F19F00196A11DB11D3FBF0E
:10025000BA2FA92F982F8827BC01CD01620F711DDD
:10026000811D911D42E0660F771F881F991F4A95D7
:10027000D1F708958F929F92AF92BF92CF92DF9263
:10028000EF92FF924B015C010E9415016B017C0112
:100290000E9415016C197D098E099F09683E734003
:1002A00081059105A8F321E0821A9108A108B108FF
:1002B00088EEC80E83E0D81EE11CF11C8114910465
:1002C000A104B10429F7FF90EF90DF90CF90BF9089
:1002D000AF909F908F900895AF92BF92CF92DF9290
:1002E000EF92FF920F931F93CF93DF936C017B01EB
:1002F0008B01040F151FEB015E01AE18BF08C0177C
:10030000D10759F06991D601ED91FC910190F081EE
:10031000E02DC6010995892B79F7C501DF91CF91B1
:100320001F910F91FF90EF90DF90CF90BF90AF9013
:100330000895FC0144815581608171818EE593E0CF
:100340000C946C01FC01538D448D252F30E0842FDB
:1003500090E0821B930B541710F0CF9608950197ED
:100360000895FC01918D828D981761F0A28DAE0FDA
:10037000BF2FB11D5D968C91928D9F5F9F73928F61
:1003800090E008958FEF9FEF0895FC01918D828D8D
:10039000981731F0828DE80FF11D858D90E008955A
:1003A0008FEF9FEF0895FC01918D228D892F90E0B2
:1003B000805C9F4F821B91098F73992708958FEA64
:1003C00092E00E94D30121E0892B09F420E0822FE2
:1003D000089580E090E0892B29F00E94DF018111CF
:1003E0000C9400000895FC01A48DA80FB92FB11D35
:1003F000A35ABF4F2C91848D90E001968F7399275B
:10040000848FA689B7892C93A089B1898C91837038
:1004100080648C93938D848D981306C00288F38931
:10042000E02D80818F7D80830895EF92FF920F935E
:100430001F93CF93DF93EC0181E0888F9B8D8C8D90
:1004400098131AC0E889F989808185FF15C09FB784
:10045000F894EE89FF896083E889F9898081837047
:10046000806480839FBF81E090E0DF91CF911F91F6
:100470000F91FF90EF900895F62E0B8D10E00F5F17
:100480001F4F0F731127E02E8C8D8E110CC00FB6ED
:1004900007FCFACFE889F989808185FFF5CFCE0185
:1004A0000E94F301F1CFEB8DEC0FFD2FF11DE35A0C
:1004B000FF4FF0829FB7F8940B8FEA89FB89808108
:1004C0008062CFCFCF93DF93EC01888D8823B9F082
:1004D000AA89BB89E889F9898C9185FD03C080814F
:1004E00086FD0DC00FB607FCF7CF8C9185FFF2CFCC
:1004F000808185FFEDCFCE010E94F301E9CFDF912E
:10050000CF9108952091A4023091A50228173907B0
:1005100071F49091A2028091A302981741F0E091AA
:10052000A202F0E0EE59FD4F808190E008958FEF38
:100530009FEF08950895EF92FF920F931F93CF932B
:10054000DF93DC015C96ED90FC905D97E114F10483
:1005500079F481E090E013969C938E93129790E04B
:1005600080E0DF91CF911F910F91FF90EF90089560
:100570005196ED91FC91529750968C915097982FEF
:1005800090950FB75E962C915E97122F127021FDF9
:100590006095F8942081112319F1282B2083E7011D
:1005A0002197F1F728E0462F50E0308160FF1AC014
:1005B000382B3083E7012197F1F7BA0175956795DC
:1005C000215089F7112381F08081892380830FBF17
:1005D0005C968D919C910197F1F781E090E0C1CFFD
:1005E0002923DCCF3923E5CF9081892BEFCF2091D0
:1005F000A4023091A5022817390761F48091A30263
:100600002091A20290E0805C9F4F821B91098F7322
:100610009927089590E080E008952091A4023091F8
:10062000A50228173907B9F49091A2028091A3027C
:10063000981789F0E091A202F0E0EE59FD4F808119
:100640002091A20230E02F5F3F4F2F73332720937A
:10065000A20290E008958FEF9FEF0895089590E033
:1006600080E00895CF93DF93EC0160E08E810E94DB
:10067000B60061E08E810E94B60060E08E810E942B
:10068000B6008BE891E00197F1F7DF91CF910895E3
:10069000CF92DF92EF92FF920F931F93CF93DF934E
:1006A0006C017C0187E0E80EF11CD0E0C0E0062F71
:1006B00010E0B8010C2E02C0759567950A94E2F718
:1006C0006170F70181917F010E94B6002196C430CC
:1006D000D10579F7C601DF91CF911F910F91FF905E
:1006E000EF90DF90CF900C943203CF92DF92EF9295
:1006F000FF920F931F93CF93DF93EC01F62E642F9D
:100700008C810E94B6008D818F3F19F060E00E94BD
:10071000B6000F2D10E08F8584FF25C06E0187E0A5
:10072000C80ED11CF12CE12CB8010E2C02C075951D
:1007300067950A94E2F76170F60181916F010E945A
:10074000B600FFEFEF1AFF0A88E0E816F10461F740
:10075000CE01DF91CF911F910F91FF90EF90DF902D
:10076000CF900C943203B80184E0759567958A9513
:10077000E1F7CE010E9448036F2DCE01DF91CF91AA
:100780001F910F91FF90EF90DF90CF900C94480352
:1007900040E0682F8DE793E00C947503CF93DF93CF
:1007A000613029F090918C03986090938C03609352
:1007B00090031092910390E490939203809393039B
:1007C000805C8093940361E0809181030E94E40047
:1007D000809182038F3F19F061E00E94E40061E0A4
:1007E000809183030E94E400CDE7D3E09E012D5762
:1007F000334080918C0384FD0BC084E090E021960F
:100800002817390744F461E08E810E94E400EECF9E
:1008100088E090E0F4CF8BE39DE00197F1F760E092
:10082000809181030E94B60060E0809183030E9462
:10083000B600809182038F3F19F060E00E94B600FD
:1008400080918C0384FD39C063E08DE793E00E94C2
:100850004803CBE4D6E4CE010197F1F763E08DE7DE
:1008600093E00E9448032197F1F763E08DE793E05E
:100870000E94480383E592E00197F1F762E08DE77B
:1008800093E00E94480380918C0380620E94C80319
:1008900084E080938D038CE00E94C80381E00E9475
:1008A000C8038BE39FE10197F1F782E080938E0309
:1008B00086E0DF91CF910C94C80380620E94C80348
:1008C0008BE496E40197F1F780918C0380620E949B
:1008D000C80383E592E00197F1F780918C03806271
:1008E0000E94C803D0CF90919003891710F08FEF2A
:1008F000890FE82FF0E0E358FC4F848980680C945E
:10090000C80341E00E94750381E090E00895FB0177
:1009100001900020E9F73197AF01461B570BDC012E
:10092000ED91FC910280F381E02D09948F929F92CA
:10093000AF92BF920F931F93CF93DF93CDB7DEB7E4
:10094000A1970FB6F894DEBF0FBECDBF19A24230FB
:1009500008F44AE08E010F5D1F4F842E912CB12CBC
:10096000A12CA50194010E94990AE62FB901CA01A0
:10097000EA3004F5E05DD801EE938D01232B242BA2
:10098000252B79F790E080E0109729F0BD018EE5E6
:1009900093E00E948704A1960FB6F894DEBF0FBEC5
:1009A000CDBFDF91CF911F910F91BF90AF909F90DE
:1009B0008F900895E95CDFCFCF93DF93BC018EE584
:1009C00093E00E948704EC016EE572E08EE593E00F
:1009D0000E9487048C0F9D1FDF91CF9108950F9384
:1009E0001F93CF93DF93EC0188819981009759F091
:1009F0002A813B812617370730F081E0DF91CF91C4
:100A00001F910F9108958B016F5F7F4F0E94E60B3E
:100A1000009759F0998388831B830A832C813D8139
:100A2000232B59F7FC011082E8CF80E0E7CFEF924B
:100A3000FF920F931F93CF93DF936115710541F4DC
:100A400080E0DF91CF911F910F91FF90EF9008957B
:100A500041155105B1F07B01EC010C811D81040FA2
:100A6000151FB8010E94EF04882351F328813981B2
:100A70008C819D81B701820F931F0E94AC0C1D8356
:100A80000C8381E0DECFCF93DF93EC0188819981E5
:100A9000009711F00E945D0B198218821D821C8242
:100AA0001B821A82DF91CF910895CF93DF93EC01DF
:100AB000FB0101900020E9F73197AF01461B570B6E
:100AC0000E941705811103C0CE010E944305CE018B
:100AD000DF91CF910895CF93DF93EC01FB01448127
:100AE0005581608171810E941705811103C0CE017B
:100AF0000E944305CE01DF91CF910895EF92FF92BE
:100B00000F931F93CF93DF93EC01198218821B82FE
:100B10001A821D821C828617970719F1FB0100813A
:100B2000118101151105E9F0E480F580B7010E94FB
:100B3000EF04811109C0CE01DF91CF911F910F9178
:100B4000FF90EF900C944305FD82EC82B801888100
:100B50009981DF91CF911F910F91FF90EF900C94AD
:100B6000AC0CDF91CF911F910F91FF90EF90089502
:100B7000EF92FF920F931F93CF93DF93EC017B01D2
:100B8000198218821B821A821D821C82FB0101902D
:100B90000020E9F731978F01061B170BB8010E945F
:100BA000EF04811109C0CE01DF91CF911F910F9108
:100BB000FF90EF900C9443051D830C83B70188814F
:100BC0009981DF91CF911F910F91FF90EF900C943D
:100BD000AC0CFC0180819181009711F00C945D0BAD
:100BE00008951F920F920FB60F9211242F933F93E7
:100BF0008F939F93AF93BF938091A7029091A80288
:100C0000A091A902B091AA023091A60223E0230F7D
:100C10002D3758F50196A11DB11D2093A602809392
:100C2000A7029093A802A093A902B093AA02809170
:100C3000AB029091AC02A091AD02B091AE020196D0
:100C4000A11DB11D8093AB029093AC02A093AD02A5
:100C5000B093AE02BF91AF919F918F913F912F9131
:100C60000F900FBE0F901F90189526E8230F029645
:100C7000A11DB11DD2CF1F920F920FB60F9211245A
:100C80002F933F934F935F936F937F938F939F9394
:100C9000AF93BF93EF93FF938FEA92E00E94F3012B
:100CA000FF91EF91BF91AF919F918F917F916F9144
:100CB0005F914F913F912F910F900FBE0F901F901A
:100CC00018951F920F920FB60F9211242F938F93A6
:100CD0009F93EF93FF93E091BF02F091C002808158
:100CE000E091C502F091C60282FD1BC09081809107
:100CF000C8028F5F8F732091C902821741F0E09183
:100D0000C802F0E0E155FD4F958F8093C802FF9136
:100D1000EF919F918F912F910F900FBE0F901F9089
:100D200018958081F4CF1F920F920FB60F92112465
:100D30002F933F934F935F936F937F938F939F93E3
:100D4000AF93BF93EF93FF93E091A402F091A502BC
:100D5000309749F0A685B7858585968D91FF14C09B
:100D60009C918923A1F4FF91EF91BF91AF919F9145
:100D70008F917F916F915F914F913F912F910F9044
:100D80000FBE0F901F9018959C91892361F7A3893E
:100D9000B4899C918589809589238C9386899789CC
:100DA0000197F1F7608D718DA685B785558538E07F
:100DB00020E0CB010197F1F7822F90E09595879580
:100DC000282F4C91452309F02068315091F7868DEA
:100DD00081FD20958091A30290E001968F73992761
:100DE0003091A202381799F0A091A302B0E0AE5959
:100DF000BD4F2C938093A302828D938D0197F1F7C1
:100E0000A389B4898C919589892B8C93ACCF868DDD
:100E10008160868FF1CFCF92DF92EF92FF92109296
:100E2000B2021092B10298EEC92E93E0D92EE12CB5
:100E3000F12CC092B302D092B402E092B502F092CB
:100E4000B6028AE091E09093B0028093AF0285EC05
:100E500090E09093BC028093BB0284EC90E090936E
:100E6000BE028093BD0280EC90E09093C00280931C
:100E7000BF0281EC90E09093C2028093C10282ECA9
:100E800090E09093C4028093C30286EC90E090932C
:100E9000C6028093C5021092C8021092C902109235
:100EA000CA021092CB021092800310927F038EE24E
:100EB00091E090937E0380937D038DE08093810386
:100EC0008FEF809382038CE0809383038BE0809389
:100ED00084038AE08093850389E08093860388E019
:100EE00080938703109288031092890310928A03DB
:100EF00010928B0310928C0361E080E10E94CE037C
:100F00001092610310926003C0926203D092630357
:100F1000E0926403F09265038CE191E090935F03AB
:100F200080935E03109275031092740310927703FE
:100F300010927603109279031092780310927B033B
:100F400010927A0360917C036E7F6D7F60937C03C7
:100F50006695617081E0682784E00E94B60061E0D8
:100F600084E00E94E400E2EBF0E0E491E0936E03A1
:100F7000EEE9F0E0E491F0E0EE0FFF1FE057FF4FE5
:100F8000859194919093700380936F0360E083E068
:100F90000E94E40080917C0381FD04C061E083E055
:100FA0000E94B60083E080936A03E1EBF0E0E491F5
:100FB000E0936B03EDE9F0E0E491F0E0EE0FFF1F4A
:100FC000EA57FF4F8591949190936D0380936C0342
:100FD00066E371E088E593E00E94B80567E471E09C
:100FE00082E593E00E94B80567E571E08CE493E048
:100FF000FF90EF90DF90CF900C94B805CF93DF93E4
:10100000CDB7DEB72C970FB6F894DEBF0FBECDBFBD
:10101000789484B5826084BD84B5816084BD85B5D3
:10102000826085BD85B5816085BD80916E008160DF
:1010300080936E0010928100809181008260809385
:101040008100809181008160809381008091800087
:101050008160809380008091B10084608093B100B2
:101060008091B00081608093B00080917A008460AC
:1010700080937A0080917A00826080937A008091D8
:101080007A00816080937A0080917A0080688093F2
:101090007A001092C10060E082E00E94E40061E00A
:1010A00087E00E94E40061E086E00E94E40064E0E2
:1010B00084E10E94CE0380E00E94730460E671E048
:1010C0008DE793E00E94870481E00E94730467E744
:1010D00071E08DE793E00E94870483E00E9473042F
:1010E0006EE871E08DE793E00E948704E091BF0213
:1010F000F091C00282E08083E091BB02F091BC02DB
:101100001082E091BD02F091BE028FEC80831092BC
:10111000C702E091C302F091C40286E08083E091AF
:10112000C102F091C202808180618083E091C1029E
:10113000F091C202808188608083E091C102F091C9
:10114000C202808180688083E091C102F091C20276
:1011500080818F7D808310927903109278031092A2
:1011600077031092760310927503109274038DE941
:1011700091E090937B0380937A0390916A03963178
:1011800008F047C02DEB30E03093750320937403D3
:101190002BE931E030937703209376032CE231E0A2
:1011A00030937903209378032091680084E098308D
:1011B00048F031E09E3008F430E081E001C0880F53
:1011C0003A95EAF7822B809368002DE630E098305C
:1011D00050F02BE630E09E3030F02CE630E09631D7
:1011E00010F030E020E03093720320937103292F38
:1011F00030E0983008F007C181E001C0880F9A956F
:10120000EAF78093730380917A0390917B030197AF
:10121000F1F78091780390917903892B49F1E0915E
:10122000A402F091A50283E0EE35F80709F13097AA
:1012300039F0A389B4899C918589809589238C9301
:1012400080917C038E7F80937C031092A302109286
:10125000A2028EE593E09093A5028093A402E09110
:101260007103F0917203808190917303892B8083C5
:1012700085EA91E00E94DC0460ED77E080E090E098
:101280000E943A0188EA91E00E94DC0460ED77E078
:1012900080E090E00E943A0164EB71E0CE0101969B
:1012A0000E94B80562E573E0CE0101960E946B05CD
:1012B0006FEB71E00E9455056CE473E00E946B05D2
:1012C00061EC71E00E9455050E9499016EE572E0A3
:1012D0008EE593E00E948704CE0101960E94E90505
:1012E00060E47FE180E090E00E943A0104E710E0D2
:1012F00090EBE92E90E0F92E2CE9C22E20E0D22EC0
:1013000030E0A32E30E0B32EF8018491F7019490E1
:10131000F6018490882009F483C081110E948D0019
:10132000E82DF0E0EE0FFF1FEA57FF4FA591B491B3
:101330008C91982209F474C083E00E94730463ECDA
:1013400071E08DE793E00E94870461E087E00E94EE
:10135000B60060E086E00E94B60082EE91E00E9456
:10136000DC0460ED77E080E090E00E943A016CE000
:1013700072E0CE0101960E94B80568E573E0CE01E7
:1013800001960E946B0561E272E00E945505BC0166
:10139000CE0107960E947E05CE0101960E94E905C6
:1013A0006DE272E08EE593E00E9487046B857C8598
:1013B00090E080E04AE00E9496046EE572E08EE5DF
:1013C00093E00E94870460ED77E080E090E00E9467
:1013D0003A01CE0107960E949901CE0107960E941C
:1013E000E90568E97AE380E090E00E943A01A114FF
:1013F000B10409F489CF0E94DF01882309F484CF66
:101400000E94000081CF9E3040F42850310981E0D5
:1014100001C0880F2A95EAF7F4CE2E503109F7CF94
:1014200083E00E94730469E372E08DE793E00E9419
:10143000870460E087E00E94B60061E086E00E94D9
:10144000B60082EE91E00E94DC0460ED77E080E07F
:1014500090E00E943A016CE072E0CE0101960E9499
:10146000B80568E573E0CE0101960E946B0565E55D
:1014700072E08BCF8CE493E00E94E90582E593E073
:101480000E94E90588E593E00E94E9058CE191E07E
:1014900090935F0380935E038091A4029091A502D4
:1014A0008E55934071F4E0917103F0917203908135
:1014B000809173038095892380831092A5021092F6
:1014C000A40208952F923F924F925F926F927F9263
:1014D0008F929F92AF92BF92CF92DF92EF92FF9244
:1014E0000F931F93CF93DF93CDB7DEB7CA1BDB0BF0
:1014F0000FB6F894DEBF0FBECDBF09942A88398895
:1015000048885F846E847D848C849B84AA84B9849B
:10151000C884DF80EE80FD800C811B81AA81B981A7
:10152000CE0FD11D0FB6F894DEBF0FBECDBFED01BB
:101530000895A1E21A2EAA1BBB1BFD010DC0AA1F14
:10154000BB1FEE1FFF1FA217B307E407F50720F02C
:10155000A21BB30BE40BF50B661F771F881F991FA7
:101560001A9469F760957095809590959B01AC01F0
:10157000BD01CF010895EE0FFF1F0590F491E02DFE
:1015800009940F931F93CF93DF938230910510F44A
:1015900082E090E0E0919703F091980330E020E042
:1015A000B0E0A0E0309799F42115310509F44AC064
:1015B000281B390B24303105D8F58A819B816115B0
:1015C000710589F1FB0193838283FE0111C0408183
:1015D00051810281138148175907E0F048175907D4
:1015E00099F4109761F012960C93129713961C932E
:1015F0003296CF01DF91CF911F910F910895009303
:10160000970310939803F4CF2115310551F0421739
:10161000530738F0A901DB019A01BD01DF01F80190
:10162000C1CFEF01F9CF9093980380939703CDCF6B
:10163000FE01E20FF31F8193919322503109398308
:101640002883D7CF2091950330919603232B41F423
:10165000209102013091030130939603209395036A
:1016600020910001309101012115310541F42DB780
:101670003EB74091040150910501241B350BE091C8
:101680009503F0919603E217F307A0F42E1B3F0B8E
:101690002817390778F0AC014E5F5F4F24173507E4
:1016A00048F04E0F5F1F509396034093950381932C
:1016B00091939FCFF0E0E0E09CCFCF93DF93009732
:1016C000E9F0FC01329713821282A0919703B09146
:1016D0009803ED0130E020E01097A1F420813181E2
:1016E000820F931F20919503309196032817390795
:1016F00009F061C0F0939603E0939503DF91CF91D9
:101700000895EA01CE17DF07E8F54A815B819E0163
:1017100041155105B1F7E901FB83EA8349915991DC
:10172000C40FD51FEC17FD0761F4808191810296EB
:10173000840F951FE90199838883828193819B831C
:101740008A83F0E0E0E012968D919C9113970097C8
:10175000B9F52D913C911197CD010296820F931FFF
:1017600020919503309196032817390739F6309761
:1017700051F51092980310929703B0939603A0939B
:101780009503BCCFD383C28340815181840F951FC1
:10179000C817D90761F44E5F5F4F88819981480F60
:1017A000591F518340838A819B81938382832115B2
:1017B000310509F0B0CFF0939803E09397039ECFE3
:1017C000FD01DC01C0CF13821282D7CFB0E0A0E0D0
:1017D000ECEEFBE00C94640A8C01009751F4CB0111
:1017E0000E94C10A8C01C801CDB7DEB7E0E10C94BC
:1017F000800AFC01E60FF71F9C0122503109E21715
:10180000F30708F49DC0D901CD91DC911197C6175B
:10181000D70798F0C530D10530F3CE01049786176D
:10182000970708F3C61BD70B2297C193D1936D93EB
:101830007C93CF010E945D0BD6CF5B01AC1ABD0A31
:101840004C018C0E9D1EA0919703B0919803512CD2
:10185000412CF12CE12C109731F58091950390915A
:1018600096038815990509F05CC04616570608F0DE
:1018700058C08091000190910101009741F48DB70B
:101880009EB74091040150910501841B950BE81708
:10189000F90708F055C0F0939603E0939503F9011A
:1018A00071836083A0CF8D919C91119712966C905B
:1018B000129713967C901397A815B90559F56C01EA
:1018C00042E0C40ED11CCA14DB0420F1AC014A1959
:1018D0005B09DA011296159780F062827382518358
:1018E0004083D9016D937C93E114F10471F0D70129
:1018F0001396FC93EE93129776CF22968C0F9D1F32
:10190000F90191838083F301EFCFF0939803E09383
:10191000970369CF4816590608F42C017D01D301BD
:101920009ACFCB010E94C10A7C01009749F0AE0119
:10193000B8010E94A30CC8010E945D0B870153CF20
:1019400010E000E050CFFB01DC0102C001900D92DD
:1019500041505040D8F70895FB01DC0101900D92F1
:101960000020E1F7089510E0C2E6D0E004C0FE01D7
:101970000E94BB0A2196C336D107C9F7F894FFCF5E
:101980000000990380000000000015026C01A20114
:101990006202D301B101C501000000009B026C018D
:1019A0002F039A02F7020D03820200000000810457
:1019B0006C012F032E035A504B5339394344305690
:1019C0004B4E443642360047616C61787920413293
:1019D00031733246314500313233343536373800D1
:1019E000202054484520425249474854204C4947FA
:1019F000485420202020004E4F495345204D4F4E43
:101A000049544F52494E472053595320200020201B
:101A1000202020204E4F20534F554E442020202080
:101A2000202020200041540041542B43574D4F4467
:101A3000453D310041542B43574A41503D2200223D
:101A40002C2200202020534F554E4420444554451D
:101A500043544544202020202020202020202020E6
:101A6000200041542B43495053544152543D225479
:101A70004350222C226170692E7468696E677370FE
:101A800065616B2E636F6D222C3830004745542002
:101A90002F7570646174653F6170695F6B65793D36
:101AA00000266669656C64313D310D0A0041542B96
:101AB00043495053454E443D002020202020204ED5
:101AC0004F20534F554E44202020202020202020FE
:101AD0002020202000266669656C64313D300D0AA7
:021AE000000004
:00000001FF
