:100000000C9463000C948B000C948B000C94990658
:100010000C9499060C9499060C948B000C948B000C
:100020000C948B000C948B000C948B000C948B0024
:100030000C948B000C948B000C948B000C948B0014
:100040000C94F7050C948B000C9467060C944106F5
:100050000C948B000C948B000C948B000C948B00F4
:100060000C948B000C948B000000000024002700EF
:100070002A0000000008000201000003040700003D
:1000800000000000000000000000230026002900FE
:1000900000000000250028002B00040404040404D0
:1000A0000404020202020202030303030303010227
:1000B00004081020408001020408102001020408F6
:1000C000102011078A0A11241FBECFEFD8E0DEBF2F
:1000D000CDBF24E0A4E0B3E001C01D92AB33B20772
:1000E000E1F713E0A0E0B1E0E0E2FAE102C0059040
:1000F0000D92A430B107D9F710E0C2E6D0E004C0F9
:100100002197FE010E940B0BC136D107C9F70E944F
:1001100004080C94030D0C940000833081F028F443
:10012000813099F08230A9F008958730A9F08830A5
:10013000C9F08430B1F4809180008F7D03C080913C
:1001400080008F7780938000089584B58F7784BD79
:10015000089584B58F7DFBCF8091B0008F77809319
:10016000B00008958091B0008F7DF9CF1F93CF9399
:10017000DF93282F30E0F901EE58FF4F8491F90109
:10018000E255FF4FD491F901E656FF4FC491CC23BD
:10019000A9F0162F81110E948D00EC2FF0E0EE0FD8
:1001A000FF1FE057FF4FA591B4918FB7F894EC91E2
:1001B000111108C0D095DE23DC938FBFDF91CF9162
:1001C0001F910895DE2BF8CFCF93DF9390E0FC01D1
:1001D000E255FF4F249186569F4FFC01849188235E
:1001E000D1F090E0880F991FFC01E859FF4FA591CD
:1001F000B491FC01E057FF4FC591D49161110EC03D
:100200009FB7F8948C91E22FE0958E238C932881F0
:10021000E223E8839FBFDF91CF9108958FB7F894D1
:10022000EC91E22BEC938FBFF6CF3FB7F89480911F
:100230004D0390914E03A0914F03B091500326B50A
:10024000A89B05C02F3F19F00196A11DB11D3FBF0E
:10025000BA2FA92F982F8827BC01CD01620F711DDD
:10026000811D911D42E0660F771F881F991F4A95D7
:10027000D1F708958F929F92AF92BF92CF92DF9263
:10028000EF92FF924B015C010E9415016B017C0112
:100290000E9415016C197D098E099F09683E734003
:1002A00081059105A8F321E0821A9108A108B108FF
:1002B00088EEC80E83E0D81EE11CF11C8114910465
:1002C000A104B10429F7FF90EF90DF90CF90BF9089
:1002D000AF909F908F900895DB0114964D915C91A3
:1002E00015976D917C91DC01ED91FC910280F38179
:1002F000E02D0994AF92BF92CF92DF92EF92FF92DE
:100300000F931F93CF93DF936C017B018B01040F3D
:10031000151FEB015E01AE18BF08C017D10759F0D9
:100320006991D601ED91FC910190F081E02DC6011B
:100330000995892B79F7C501DF91CF911F910F9115
:10034000FF90EF90DF90CF90BF90AF900895FC01A9
:10035000538D448D252F30E0842F90E0821B930B2A
:10036000541710F0CF96089501970895FC01918DD0
:10037000828D981761F0A28DAE0FBF2FB11D5D96D3
:100380008C91928D9F5F9F73928F90E008958FEF75
:100390009FEF0895FC01918D828D981731F0828D29
:1003A000E80FF11D858D90E008958FEF9FEF089580
:1003B000FC01918D228D892F90E0805C9F4F821BE4
:1003C00091098F739927089581E593E00E94D801E0
:1003D00021E0892B09F420E0822F089580E090E04D
:1003E000892B29F00E94E40181110C9400000895EA
:1003F000FC01A48DA80FB92FB11DA35ABF4F2C919A
:10040000848D90E001968F739927848FA689B78990
:100410002C93A089B1898C91837080648C93938D87
:10042000848D981306C00288F389E02D80818F7D2A
:1004300080830895EF92FF920F931F93CF93DF93E2
:10044000EC0181E0888F9B8D8C8D98131AC0E88910
:10045000F989808185FF15C09FB7F894EE89FF89DF
:100460006083E889F98980818370806480839FBF7D
:1004700081E090E0DF91CF911F910F91FF90EF907D
:100480000895F62E0B8D10E00F5F1F4F0F7311278D
:10049000E02E8C8D8E110CC00FB607FCFACFE889C8
:1004A000F989808185FFF5CFCE010E94F801F1CF57
:1004B000EB8DEC0FFD2FF11DE35AFF4FF0829FB73C
:1004C000F8940B8FEA89FB8980818062CFCFCF932C
:1004D000DF93EC01888D8823B9F0AA89BB89E8896C
:1004E000F9898C9185FD03C0808186FD0DC00FB612
:1004F00007FCF7CF8C9185FFF2CF808185FFEDCF90
:10050000CE010E94F801E9CFDF91CF9108952091AB
:100510004603309147032817390771F4909144033B
:1005200080914503981741F0E0914403F0E0EC5FBF
:10053000FC4F808190E008958FEF9FEF089508951C
:10054000EF92FF920F931F93CF93DF93DC015C96A2
:10055000ED90FC905D97E114F10479F481E090E076
:1005600013969C938E93129790E080E0DF91CF9149
:100570001F910F91FF90EF9008955196ED91FC918E
:10058000529750968C915097982F90950FB75E96F2
:100590002C915E97122F127021FD6095F8942081A6
:1005A000112319F1282B2083E7012197F1F728E087
:1005B000462F50E0308160FF1AC0382B3083E701AE
:1005C0002197F1F7BA0175956795215089F71123A5
:1005D00081F08081892380830FBF5C968D919C91EF
:1005E0000197F1F781E090E0C1CF2923DCCF3923D7
:1005F000E5CF9081892BEFCF2091460330914703BF
:100600002817390761F4809145032091440390E055
:10061000805C9F4F821B91098F739927089590E00A
:1006200080E0089520914603309147032817390749
:10063000B9F49091440380914503981789F0E091B3
:100640004403F0E0EC5FFC4F80812091440330E0F4
:100650002F5F3F4F2F7333272093440390E008957B
:100660008FEF9FEF0895089590E080E00895CF9375
:10067000DF93EC0160E08E810E94B60061E08E8124
:100680000E94B60060E08E810E94B6008BE891E087
:100690000197F1F7DF91CF910895CF92DF92EF921A
:1006A000FF920F931F93CF93DF936C017C0187E040
:1006B000E80EF11CD0E0C0E0062F10E0B8010C2ECF
:1006C00002C0759567950A94E2F76170F701819110
:1006D0007F010E94B6002196C430D10579F7C6018A
:1006E000DF91CF911F910F91FF90EF90DF90CF900E
:1006F0000C943703CF92DF92EF92FF920F931F93E8
:10070000CF93DF93EC01F62E642F8C810E94B6000C
:100710008D818F3F19F060E00E94B6000F2D10E030
:100720008F8584FF25C06E0187E0C80ED11CF12C97
:10073000E12CB8010E2C02C0759567950A94E2F77A
:100740006170F60181916F010E94B600FFEFEF1A10
:10075000FF0A88E0E816F10461F7CE01DF91CF913E
:100760001F910F91FF90EF90DF90CF900C94370383
:10077000B80184E0759567958A95E1F7CE010E94EE
:100780004D036F2DCE01DF91CF911F910F91FF90FF
:10079000EF90DF90CF900C944D0340E0682F8FE1F5
:1007A00094E00C947A03CF93DF93613029F0909119
:1007B0002E04986090932E046093320410923304B8
:1007C00090E49093340480933504805C80933604E5
:1007D00061E0809123040E94E400809124048F3F13
:1007E00019F061E00E94E40061E0809125040E941C
:1007F000E400CFE1D4E09E012F51344080912E04DB
:1008000084FD0BC084E090E021962817390744F45A
:1008100061E08E810E94E400EECF88E090E0F4CFAA
:100820008BE39DE00197F1F760E0809123040E9443
:10083000B60060E0809125040E94B60080912404F7
:100840008F3F19F060E00E94B60080912E0484FD75
:1008500039C063E08FE194E00E944D03CBE4D6E41D
:10086000CE010197F1F763E08FE194E00E944D0320
:100870002197F1F763E08FE194E00E944D0383E557
:1008800092E00197F1F762E08FE194E00E944D035E
:1008900080912E0480620E94CD0384E080932F0417
:1008A0008CE00E94CD0381E00E94CD038BE39FE1A9
:1008B0000197F1F782E08093300486E0DF91CF91D9
:1008C0000C94CD0380620E94CD038BE496E40197E3
:1008D000F1F780912E0480620E94CD0383E592E0BF
:1008E0000197F1F780912E0480620E94CD03D0CF52
:1008F00090913204891710F08FEF890FE82FF0E004
:10090000E15EFB4F848980680C94CD0341E00E9436
:100910007A0381E090E00895FB0101900020E9F75F
:100920003197AF01461B570BDC01ED91FC91028022
:10093000F381E02D09948F929F92AF92BF920F9313
:100940001F93CF93DF93CDB7DEB7A1970FB6F8947F
:10095000DEBF0FBECDBF19A2423008F44AE08E01BF
:100960000F5D1F4F842E912CB12CA12CA501940159
:100970000E94E90AE62FB901CA01EA3004F5E05DF8
:10098000D801EE938D01232B242B252B79F790E0B2
:1009900080E0109729F0BD0180E094E00E948C0473
:1009A000A1960FB6F894DEBF0FBECDBFDF91CF91F9
:1009B0001F910F91BF90AF909F908F900895E95C29
:1009C000DFCF0F931F93CF93DF93EC010E948C0432
:1009D0008C0169EC72E0CE010E948C04800F911FA3
:1009E000DF91CF911F910F9108950F931F93CF9394
:1009F000DF93EC0188819981009759F02A813B812E
:100A00002617370730F081E0DF91CF911F910F91CA
:100A100008958B016F5F7F4F0E94360C009759F04D
:100A2000998388831B830A832C813D81232B59F76B
:100A3000FC011082E8CF80E0E7CFEF92FF920F93A6
:100A40001F93CF93DF936115710541F480E0DF912F
:100A5000CF911F910F91FF90EF900895411551058F
:100A6000B1F07B01EC010C811D81040F151FB80151
:100A70000E94F504882351F3288139818C819D815E
:100A8000B701820F931F0E94FC0C1D830C8381E031
:100A9000DECFCF93DF93EC0188819981009711F02D
:100AA0000E94AD0B198218821D821C821B821A8241
:100AB000DF91CF910895CF93DF93EC01FB0101907B
:100AC0000020E9F73197AF01461B570B0E941D0527
:100AD000811103C0CE010E944905CE01DF91CF9163
:100AE0000895CF93DF93EC01FB0144815581608130
:100AF00071810E941D05811103C0CE010E9449052C
:100B0000CE01DF91CF910895EF92FF920F931F9343
:100B1000CF93DF93EC01198218821B821A821D8207
:100B20001C828617970719F1FB01008111810115BD
:100B30001105E9F0E480F580B7010E94F504811108
:100B400009C0CE01DF91CF911F910F91FF90EF90DF
:100B50000C944905FD82EC82B80188819981DF916E
:100B6000CF911F910F91FF90EF900C94FC0CDF91AF
:100B7000CF911F910F91FF90EF900895EF92FF9208
:100B80000F931F93CF93DF93EC017B01198218829F
:100B90001B821A821D821C82FB0101900020E9F752
:100BA00031978F01061B170BB8010E94F5048111C4
:100BB00009C0CE01DF91CF911F910F91FF90EF906F
:100BC0000C9449051D830C83B70188819981DF91BD
:100BD000CF911F910F91FF90EF900C94FC0CFC01B2
:100BE00080819181009711F00C94AD0B08951F92B4
:100BF0000F920FB60F9211242F933F938F939F93D1
:100C0000AF93BF938091490390914A03A0914B0306
:100C1000B0914C033091480323E0230F2D3758F552
:100C20000196A11DB11D2093480380934903909321
:100C30004A03A0934B03B0934C0380914D039091D2
:100C40004E03A0914F03B09150030196A11DB11D19
:100C500080934D0390934E03A0934F03B0935003A2
:100C6000BF91AF919F918F913F912F910F900FBEA8
:100C70000F901F90189526E8230F0296A11DB11D15
:100C8000D2CF1F920F920FB60F9211242F933F9342
:100C90004F935F936F937F938F939F93AF93BF9384
:100CA000EF93FF9381E593E00E94F801FF91EF91AC
:100CB000BF91AF919F918F917F916F915F914F9174
:100CC0003F912F910F900FBE0F901F9018951F927C
:100CD0000F920FB60F9211242F938F939F93EF9340
:100CE000FF93E0916103F09162038081E0916703DB
:100CF000F091680382FD1BC0908180916A038F5F31
:100D00008F7320916B03821741F0E0916A03F0E04A
:100D1000EF5AFC4F958F80936A03FF91EF919F915B
:100D20008F912F910F900FBE0F901F90189580817B
:100D3000F4CF1F920F920FB60F9211242F933F936F
:100D40004F935F936F937F938F939F93AF93BF93D3
:100D5000EF93FF93E0914603F0914703309749F0FA
:100D6000A685B7858585968D91FF14C09C918923B2
:100D7000A1F4FF91EF91BF91AF919F918F917F91DE
:100D80006F915F914F913F912F910F900FBE0F90F8
:100D90001F9018959C91892361F7A389B4899C9130
:100DA0008589809589238C93868997890197F1F7A6
:100DB000608D718DA685B785558538E020E0CB0123
:100DC0000197F1F7822F90E095958795282F4C9108
:100DD000452309F02068315091F7868D81FD2095DB
:100DE0008091450390E001968F73992730914403D9
:100DF000381799F0A0914503B0E0AC5FBC4F2C933D
:100E000080934503828D938D0197F1F7A389B4896F
:100E10008C919589892B8C93ACCF868D8160868F40
:100E2000F1CFCF92DF92EF92FF9210925403109283
:100E3000530398EEC92E93E0D92EE12CF12CC092E9
:100E40005503D0925603E0925703F09258038AE07C
:100E500091E0909352038093510385EC90E090933E
:100E60005E0380935D0384EC90E090936003809335
:100E70005F0380EC90E0909362038093610381ECC8
:100E800090E0909364038093630382EC90E09093EE
:100E900066038093650386EC90E0909368038093EB
:100EA000670310926A0310926B0310926C03109206
:100EB0006D0310922204109221048EE291E090932F
:100EC000200480931F048DE0809323048FEF809390
:100ED00024048CE0809325048BE0809326048AE030
:100EE0008093270489E08093280488E08093290474
:100EF00010922A0410922B0410922C0410922D04AC
:100F000010922E0461E080E10E94D303109203044A
:100F100010920204C0920404D0920504E0920604E8
:100F2000F09207048CE191E0909301048093000417
:100F300010921704109216041092190410921804BB
:100F400010921B0410921A0410921D0410921C049B
:100F500060911E046E7F6D7F60931E0466956170C4
:100F600081E0682784E00E94B60061E084E00E948E
:100F7000E400E2EBF0E0E491E0931004EEE9F0E04D
:100F8000E491F0E0EE0FFF1FE057FF4F8591949141
:100F9000909312048093110460E083E00E94E400C7
:100FA00080911E0481FD04C061E083E00E94B600D0
:100FB00083E080930C04E1EBF0E0E491E0930D0416
:100FC000EDE9F0E0E491F0E0EE0FFF1FEA57FF4F8C
:100FD0008591949190930F0480930E0466E371E0E1
:100FE0008AEF93E00E94BE0567E471E084EF93E02E
:100FF0000E94BE0567E571E08EEE93E0FF90EF90F2
:10100000DF90CF900C94BE05CF93DF93CDB7DEB7C2
:101010002C970FB6F894DEBF0FBECDBF789484B581
:10102000826084BD84B5816084BD85B5826085BDE4
:1010300085B5816085BD80916E00816080936E0072
:101040001092810080918100826080938100809164
:101050008100816080938100809180008160809315
:1010600080008091B10084608093B1008091B000D5
:1010700081608093B00080917A00846080937A00D0
:1010800080917A00826080937A0080917A008160FA
:1010900080937A0080917A00806880937A00109221
:1010A000C10060E082E00E94E40061E087E00E940D
:1010B000E40061E086E00E94E40064E084E10E94D4
:1010C000D30380E00E94780460E671E08FE194E051
:1010D0000E948C0481E00E94780467E771E08FE150
:1010E00094E00E948C0483E00E9478046EE871E032
:1010F0008FE194E00E948C04E0916103F09162031F
:1011000082E08083E0915D03F0915E031082E091C4
:101110005F03F09160038FEC808310926903E0918C
:101120006503F091660386E08083E0916303F091AC
:101130006403808180618083E0916303F0916403A4
:10114000808188608083E0916303F09164038081F3
:1011500080688083E0916303F091640380818F7DD8
:10116000808310921B0410921A041092190410929A
:10117000180410921704109216048DE991E09093D0
:101180001D0480931C0490910C04963108F047C014
:101190002DEB30E030931704209316042BE931E057
:1011A00030931904209318042CE231E030931B048F
:1011B00020931A042091680084E0983048F031E0D0
:1011C0009E3008F430E081E001C0880F3A95EAF7DC
:1011D000822B809368002DE630E0983050F02BE6AB
:1011E00030E09E3030F02CE630E0963110F030E008
:1011F00020E03093140420931304292F30E098301A
:1012000008F049C181E001C0880F9A95EAF7809300
:10121000150480911C0490911D040197F1F78091B1
:101220001A0490911B04892B49F1E0914603F09137
:10123000470384E0E030F80709F1309739F0A389DB
:10124000B4899C918589809589238C9380911E0413
:101250008E7F80931E04109245031092440380E019
:1012600094E09093470380934603E0911304F09138
:101270001404808190911504892B808365EA71E0C4
:1012800081E593E00E94E10467EB71E081E593E082
:101290000E94E1046DEC71E081E593E00E948C0412
:1012A00064EF73E081E593E00E946C0169EC72E009
:1012B00081E593E00E948C0464ED71E080E094E0AD
:1012C0000E94E10460ED77E080E090E00E943A0146
:1012D00067ED71E080E094E00E94E10460ED77E06A
:1012E00080E090E00E943A0163EE71E0CE01019649
:1012F0000E94BE0564EF73E0CE0101960E94710565
:101300006EEE71E00E945B056EEE73E00E94710567
:1013100060EF71E00E945B05BC0180E094E00E94F8
:101320006C0169EC72E080E094E00E948C04CE01D4
:1013300001960E94EF0560E47FE180E090E00E946A
:101340003A0162EF71E081E593E00E94E10404E775
:1013500010E090EBE92E90E0F92E2CE9C22E20E06F
:10136000D22E30E0A32E30E0B32EF8018491F701A5
:101370009490F6018490882009F49AC081110E940B
:101380008D00E82DF0E0EE0FFF1FEA57FF4FA5910B
:10139000B4918C91982209F48BC083E00E94780468
:1013A0006FE072E08FE194E00E948C0461E087E0DE
:1013B0000E94B60060E086E00E94B60066E272E03D
:1013C00081E593E00E94E10466E472E080E094E04D
:1013D0000E94E10460ED77E080E090E00E943A0135
:1013E00060E772E0CE0101960E94BE056AEF73E0ED
:1013F000CE0101960E94710565E872E00E945B05CE
:10140000BC01CE0107960E948405CE0101960E9480
:10141000EF0561E972E080E094E00E948C046B8546
:101420007C8590E080E04AE00E949B0469EC72E0D9
:1014300080E094E00E948C0460ED77E080E090E032
:101440000E943A01BE01695F7F4F80E094E00E94F4
:101450006C01CE0107960E94EF056CEC72E081E50D
:1014600093E00E94E10467EE72E081E593E00E9460
:10147000E10468E97AE380E090E00E943A01A11477
:10148000B10409F472CF0E94E401882309F46DCFFE
:101490000E9400006ACF9E3040F42850310981E05C
:1014A00001C0880F2A95EAF7B2CE2E503109F7CF46
:1014B00083E00E9478046EE871E08FE194E00E947E
:1014C0008C0460E087E00E94B60061E086E00E9444
:1014D000B6006DE972E081E593E00E94E10466E404
:1014E00072E080E094E00E94E10460ED77E080E04B
:1014F00090E00E943A0160E772E0CE0101960E94FE
:10150000BE056AEF73E0CE0101960E94710560ECA2
:1015100072E074CF8EEE93E00E94EF0584EF93E0CB
:101520000E94EF058AEF93E00E94EF058CE191E0C5
:1015300090930104809300048091460390914703A7
:101540008050944071F4E0911304F0911404908160
:10155000809115048095892380831092470310920F
:10156000460308952F923F924F925F926F927F921F
:101570008F929F92AF92BF92CF92DF92EF92FF92A3
:101580000F931F93CF93DF93CDB7DEB7CA1BDB0B4F
:101590000FB6F894DEBF0FBECDBF09942A883988F4
:1015A00048885F846E847D848C849B84AA84B984FB
:1015B000C884DF80EE80FD800C811B81AA81B98107
:1015C000CE0FD11D0FB6F894DEBF0FBECDBFED011B
:1015D0000895A1E21A2EAA1BBB1BFD010DC0AA1F74
:1015E000BB1FEE1FFF1FA217B307E407F50720F08C
:1015F000A21BB30BE40BF50B661F771F881F991F07
:101600001A9469F760957095809590959B01AC014F
:10161000BD01CF010895EE0FFF1F0590F491E02D5D
:1016200009940F931F93CF93DF938230910510F4A9
:1016300082E090E0E0913904F0913A0430E020E05B
:10164000B0E0A0E0309799F42115310509F44AC0C3
:10165000281B390B24303105D8F58A819B8161150F
:10166000710589F1FB0193838283FE0111C04081E2
:1016700051810281138148175907E0F04817590733
:1016800099F4109761F012960C93129713961C938D
:101690003296CF01DF91CF911F910F910895009362
:1016A000390410933A04F4CF2115310551F0421753
:1016B000530738F0A901DB019A01BD01DF01F801F0
:1016C000C1CFEF01F9CF90933A0480933904CDCF85
:1016D000FE01E20FF31F8193919322503109398368
:1016E0002883D7CF2091370430913804232B41F43D
:1016F0002091020130910301309338042093370484
:1017000020910001309101012115310541F42DB7DF
:101710003EB74091040150910501241B350BE09127
:101720003704F0913804E217F307A0F42E1B3F0BA7
:101730002817390778F0AC014E5F5F4F2417350743
:1017400048F04E0F5F1F5093380440933704819345
:1017500091939FCFF0E0E0E09CCFCF93DF93009791
:10176000E9F0FC01329713821282A0913904B09102
:101770003A04ED0130E020E01097A1F4208131819E
:10178000820F931F209137043091380428173907AE
:1017900009F061C0F0933804E0933704DF91CF91F2
:1017A0000895EA01CE17DF07E8F54A815B819E01C3
:1017B00041155105B1F7E901FB83EA83499159913C
:1017C000C40FD51FEC17FD0761F48081918102964B
:1017D000840F951FE90199838883828193819B837C
:1017E0008A83F0E0E0E012968D919C911397009728
:1017F000B9F52D913C911197CD010296820F931F5F
:1018000020913704309138042817390739F630977A
:1018100051F510923A0410923904B0933804A09311
:101820003704BCCFD383C28340815181840F951F7D
:10183000C817D90761F44E5F5F4F88819981480FBF
:10184000591F518340838A819B8193838283211511
:10185000310509F0B0CFF0933A04E09339049ECFFC
:10186000FD01DC01C0CF13821282D7CFB0E0A0E02F
:10187000ECE3FCE00C94B40A8C01009751F4CB012A
:101880000E94110B8C01C801CDB7DEB7E0E10C94CA
:10189000D00AFC01E60FF71F9C0122503109E21724
:1018A000F30708F49DC0D901CD91DC911197C617BB
:1018B000D70798F0C530D10530F3CE0104978617CD
:1018C000970708F3C61BD70B2297C193D1936D934B
:1018D0007C93CF010E94AD0BD6CF5B01AC1ABD0A41
:1018E0004C018C0E9D1EA0913904B0913A04512CEC
:1018F000412CF12CE12C109731F580913704909117
:1019000038048815990509F05CC04616570608F09A
:1019100058C08091000190910101009741F48DB76A
:101920009EB74091040150910501841B950BE81767
:10193000F90708F055C0F0933804E0933704F90133
:1019400071836083A0CF8D919C91119712966C90BA
:10195000129713967C901397A815B90559F56C0149
:1019600042E0C40ED11CCA14DB0420F1AC014A19B8
:101970005B09DA011296159780F0628273825183B7
:101980004083D9016D937C93E114F10471F0D70188
:101990001396FC93EE93129776CF22968C0F9D1F91
:1019A000F90191838083F301EFCFF0933A04E09340
:1019B000390469CF4816590608F42C017D01D3017A
:1019C0009ACFCB010E94110B7C01009749F0AE0128
:1019D000B8010E94F30CC8010E94AD0B870153CFE0
:1019E00010E000E050CFFB01DC0102C001900D923D
:1019F00041505040D8F70895FB01DC0101900D9251
:101A00000020E1F7089510E0C2E6D0E004C0FE0136
:101A10000E940B0B2196C336D107C9F7F894FFCF6C
:101A200000003B048000000000001A027A01A701B8
:101A30006702D801B601CA0100000000A0027A01C5
:101A400034039F02FC021203870200000000860498
:101A50007A01340333035A504B53393943443056D7
:101A60004B4E443642360047616C617879204132F2
:101A70003173324631450031323334353637380030
:101A8000202054484520425249474854204C494759
:101A9000485420202020004E4F495345204D4F4EA2
:101AA00049544F52494E472053595320200020207B
:101AB000202020204E4F20534F554E4420202020E0
:101AC000202020200053797374656D205374617257
:101AD0007465642E2E2E00436F6E6E656374696E9E
:101AE0006720746F20576946692E2E2E0053534984
:101AF000443A200041540041542B43574D4F444534
:101B00003D310041542B43574A41503D2200222C85
:101B100022005769466920636F6E6E656374656461
:101B2000207375636365737366756C6C792100202F
:101B30002020534F554E442044455445435445447A
:101B4000202020202000536F756E6420446574654A
:101B500063746564212053656E64696E67206461F7
:101B600074613A20310041542B434950535441523F
:101B7000543D22544350222C226170692E746869AE
:101B80006E67737065616B2E636F6D222C38300049
:101B9000474554202F7570646174653F6170695FBB
:101BA0006B65793D00266669656C64313D310D0ACF
:101BB0000041542B43495053454E443D004E6F2045
:101BC000736F756E642064657465637465642E203C
:101BD00053656E64696E6720646174613A203000F9
:101BE000266669656C64313D300D0A00446174619C
:101BF0002073656E7420746F205468696E6753702B
:101C000065616B2E2E2E002D2D2D2D2D2D2D2D2D84
:101C10002D2D2D2D2D2D2D2D2D2D2D2D2D2D2D2DF4
:041C20002D2D000066
:00000001FF
